:020000040800F2
:1000000080300120850C0008F10C0008F10C00087C
:10001000F10C0008F10C0008F10C000800000000D1
:10002000000000000000000000000000C96300089C
:10003000F10C000800000000F5640008516500089C
:10004000F10C0008F10C0008F10C0008F10C00089C
:10005000F10C0008F10C0008F10C0008F10C00088C
:10006000F10C0008F10C0008F10C0008F10C00087C
:10007000F10C0008F10C0008F10C0008F10C00086C
:10008000F10C0008F10C0008F10C0008F10C00085C
:10009000F10C0008F10C0008F10C0008F10C00084C
:1000A000F10C0008F10C0008F10C0008F10C00083C
:1000B000955A0008F10C0008F10C0008F10C00083A
:1000C000F10C0008F10C0008F10C0008F10C00081C
:1000D000F10C0008F10C0008F10C0008F10C00080C
:1000E000E10D0008F10C0008F10C0008F10C00080B
:1000F000F10C0008F10C0008F10C0008F10C0008EC
:10010000F10C0008F10C00086D620008F10C000809
:10011000F10C0008F10C0008F10C0008F10C0008CB
:10012000F10C0008F10C0008F10C0008F10C0008BB
:10013000F10C0008F10C0008F10C0008F10C0008AB
:10014000F10C0008F10C0008F10C0008F10C00089B
:10015000F10C0008F10C0008F10C0008F10C00088B
:10016000F10C0008F10C0008F10C0008F10C00087B
:10017000F10C0008F10C0008F10C0008F10C00086B
:10018000F10C0008F10C000810B5054C237833B9C8
:10019000044B13B10448AFF300800123237010BD5A
:1001A000D805002000000000D0E20008084B10B580
:1001B0001BB108490848AFF300800848036803B939
:1001C00010BD074B002BFBD0BDE81040184700BF07
:1001D00000000000DC050020D0E20008D40500206B
:1001E0000000000090B585B000AF03460A46FB71E1
:1001F0001346BB710023FB60FB79002B1BD0FB79FE
:10020000012B18D0FB79022B15D0FB79032B12D0D0
:10021000FB79042B0FD0FB79052B0CD0FB79062B37
:1002200009D0FB79072B06D0FB79082B03D07C2162
:10023000354801F065F9BB79002B30D0BB79012B33
:100240002DD0BB79022B2AD0BB79032B27D0BB79C9
:10025000042B24D0BB79052B21D0BB79062B1ED0D3
:10026000BB79072B1BD0BB79082B18D0BB79092B86
:1002700015D0BB790A2B12D0BB790B2B0FD0BB79D1
:100280000C2B0CD0BB790D2B09D0BB790E2B06D0D3
:10029000BB790F2B03D07D211B4801F031F9BB79CD
:1002A00003F003039B000F2202FA03F3FB601749DC
:1002B000BB799B08DBB21846144ABB799B08DBB2BA
:1002C000023352F82320FB68DB431A40831C41F8B9
:1002D00023200E48BB799B08DBB21C460B4ABB7936
:1002E0009B08DBB2023352F82320F979BB7903F083
:1002F00003039B0001FA03F31A43A31C40F82320D5
:1003000000BF1437BD4690BDA8A1000800380140C9
:1003100080B485B000AF78600023FB6005E07B68A7
:1003200001337B60FB680133FB607B681B78002B2B
:10033000F5D1FB6818461437BD465DF8047B70475D
:1003400090B587B000AFC7E902017A60BB683B6136
:100350003B69002B06DAD7E902345B4264EB4404C4
:10036000C7E9023400237B617B695A1C7A611A4613
:100370007B689C18D7E902014FF00A024FF0000396
:1003800009F09EFAD3B23033DBB22370D7E9020111
:100390004FF00A024FF0000309F092FA03460C46B0
:1003A000C7E90234D7E90234012B74F10003DBDA28
:1003B0003B69002B07DA7B695A1C7A611A467B6815
:1003C00013442D221A707B697A68134400221A7034
:1003D000786800F0F3F800BF1C37BD4690BD00BF41
:1003E00080B590B000AF87ED030AB8600B46FB7193
:1003F000002387F83F300023BB6300237B62002388
:100400003B62D7ED037AF5EEC07AF1EE10FA08D52B
:10041000D7ED037AF1EE677AC7ED037A012387F807
:100420003F30D7ED037AFDEEE77A17EE903AFB61A5
:10043000D7ED037AFDEEE77A17EE900A00F054F953
:10044000F0EE407AFDEEE77A17EE903ABB61BB69B9
:100450007B6397F83F30002B02D0BB682D221A70C7
:1004600001233B633CE03B6B07EE903AF8EEE77A02
:10047000F0EE670AB2EE040A00F0FAF8F0EE407A05
:10048000FDEEE77A17EE903A3B62FB693A6A93FB1E
:10049000F2F2396A01FB02F29B1A7B627A6ABB6B49
:1004A000D21A3B6A444981FB03018910DB17CB1A3E
:1004B00092FBF3F3BB637B6B5A1E7A6397F83F2082
:1004C00013441A46BB681344BA6BD2B23032D2B26C
:1004D0001A707B6BB3F1FF3F08D03B6B01333B637A
:1004E000BB699A1C3B6B9A42BDDC00E000BFBB6954
:1004F00001337B6397F83F207B6B13441A46BB683C
:1005000013442E221A70FB6907EE903AF8EEE77A50
:1005100097ED037A77EE677AC7ED057A7B69FB6220
:100520004FF000033B610123BB6230E00A233B62D2
:100530003B6A07EE903AB8EEE77AD7ED0B7A67EEB2
:10054000277AC7ED047AD7ED047AFDEEE77A17EE45
:10055000903ABB637B6B01337B6397F83F207B6BE7
:1005600013441A46BB681344BA6BD2B23032D2B2CB
:100570001A70BB6B07EE903AF8EEE77A97ED047AC3
:1005800077EE677AC7ED0B7ABB6A0133BB62FA7903
:10059000BB6A9A42CADA7B6B01337B6397F83F20D0
:1005A0007B6B13441A46BB68134400221A7000BFC9
:1005B0004037BD4680BD00BF6766666680B586B0C1
:1005C00000AF786000237B617868FFF7A1FE0346E7
:1005D000013B3B6118E07B697A6813441B78FB6040
:1005E0007B697A6813443A6979680A4412781A7008
:1005F0003B697A681344FA68D2B21A707B69013396
:100600007B613B69013B3B617A693B699A42E2DB72
:1006100000BF1837BD4680BD80B485B000AF78609C
:1006200039600023FB600023BB6002E0FB680133FC
:10063000FB60FB687A6813441B78002BF6D100BF7F
:10064000FB685A1CFA601A467B681344BA68511C4E
:10065000B96011463A680A4412781A701B78002B68
:10066000EED100BF1437BD465DF8047B704700BF74
:1006700090B587B000AF87ED010AC7ED000A4FF0D3
:100680000003184CC7E904340023FB6011E07868CC
:1006900008F0A2FD03460C461A462346D7E904019A
:1006A00008F0EEFD03460C46C7E90434FB6801334D
:1006B000FB60FB6807EE903AB8EEE77AD7ED007A78
:1006C000B4EEE77AF1EE10FAE1D4D7E9040109F0CB
:1006D000A7F8034607EE903AB0EE670A1C37BD460E
:1006E00090BD00BF0000F03F80B483B000AF7860E1
:1006F0007B68214A934235D87B68204A93422ED8A2
:100700007B681F4A934228D87B681E4A934222D8AE
:100710007B681D4A93421CD87B6842F20F72934259
:1007200014D87B68B3F57A7F0ED27B68632B08D828
:100730007B68092B02D94FF07E5314E04FF0000381
:1007400011E04FF080430EE0104B0CE04FF081437E
:1007500009E00F4B07E00F4B05E00F4B03E04FF0B4
:10076000824300E00D4B07EE903AB0EE670A0C377B
:10077000BD465DF8047B7047FFC99A3BFFE0F50575
:100780007F9698003F420F009F8601000000404086
:100790000000A0400000C0400000E0400000104108
:1007A00080B582B000AF0346FB7100BF02210E4846
:1007B00006F05EFC0346002BF8D0FB799BB219468D
:1007C000094806F025FC00BF0121074806F050FC4F
:1007D0000346002BF8D0044806F0ECFB0346DBB2DE
:1007E00018460837BD4680BD0030014090B587B03F
:1007F00000AF0346B9607A60FB730023FB750EE01F
:10080000FB7D7A68D418FB7DBA6813441B781846C0
:10081000FFF7C6FF03462370FB7D0133FB75FA7DAE
:10082000FB7B9A42ECD300BF1C37BD4690BD00BF96
:1008300080B584B000AF0346FB71FB793B730023A6
:100840007B730023BB7300233B7200237B72002366
:10085000BB720421164803F005FE07F1080207F1F8
:100860000C0319460320FFF7C1FF0421104803F0D1
:10087000A7FDFB7903F00803002B0AD17B7A5B010B
:100880001AB2BB7ADB08DBB21BB213431BB29BB2BA
:1008900009E07B7A1B011AB2BB7A1B09DBB21BB2DF
:1008A00013431BB29BB218461037BD4680BD00BF34
:1008B0000008024080B588B000AF01214FF480509D
:1008C00000F0DEFF0121012000F0F6FE00233B8254
:1008D00000237B834FF48273FB814FF40073FB8210
:1008E0000023BB8128233B830023BB8200237B8220
:1008F0000123BB8307F10C0319462E4806F026FAA4
:10090000052205212C4803F0FFFD052206212A4877
:1009100003F0FAFD05220721274803F0F5FD012326
:100920003B720023BB7204237B600023FB72022313
:100930007B723B1D1946214803F09AFB02233B7250
:100940000023BB720023FB72E0237B6002237B72D7
:100950003B1D1946184803F08BFB00233B72012313
:10096000FB720023BB7202237B6002237B723B1D60
:100970001946124803F07CFB01210E4806F0D8FA14
:100980009020FFF755FF0E4B0E4A1A600C4B0E4A93
:100990005A600B4B0D4A9A60094B0D4ADA60084BBE
:1009A0000C4A1A61064B0C4A5A6100BF2037BD46FB
:1009B00080BD00BF0030014000000240000802403E
:1009C00048BC0020D8D5A43D425DA4BA499D00C2D0
:1009D000BD3A473ADC7FE43D246802C280B594B05A
:1009E00000AF78603960D120FFF722FF9120FFF738
:1009F0001FFF0023FB641AE0D120FFF719FF034615
:100A00001A46FB6C9B0007F150010B4443F8282C5D
:100A10009120FFF70DFF03461A46FB6C9B0007F180
:100A200050010B4443F8442CFB6C0133FB64FB6C1A
:100A3000062BE1DD0023FB645BE0FB6CBB6452E052
:100A4000FB6C9B0007F15002134453F8283C7B6475
:100A5000BB6C9B0007F15002134453F8282C7B6CAD
:100A60009A4215DABB6C9B0007F15002134453F80D
:100A7000282CFB6C9B0007F150010B4443F8282CF9
:100A8000BB6C9B0007F1500213447A6C43F8282C8E
:100A9000FB6C9B0007F15002134453F8443C7B6409
:100AA000BB6C9B0007F15002134453F8442C7B6C41
:100AB0009A4215DABB6C9B0007F15002134453F8BD
:100AC000442CFB6C9B0007F150010B4443F8442C71
:100AD000BB6C9B0007F1500213447A6C43F8442C22
:100AE000BB6C0133BB64BB6C062BA9DDFB6C013313
:100AF000FB64FB6C032BA0DD9020FFF799FE022125
:100B0000094803F0CBFB0346002B01D0002306E08D
:100B10007A6B7B681A60BA693B681A6001231846D1
:100B20005037BD4680BD00BF0008024080B58AB086
:100B300000AFF860B9607A6000237B6200233B62FB
:100B40000023FB6115E007F1140207F118031146B9
:100B50001846FFF743FF0346002B0FD0BB693A6AE4
:100B600013443B627B69FA691344FB617B6A01337E
:100B70007B627A6A7B689A42E5DB00E000BF7B6AB1
:100B8000002B01D100230EE03A6A7B6A92FBF3F35B
:100B9000C3F58052FB681A60FA697B6A92FBF3F234
:100BA000BB681A60012318462837BD4680BD00BFC8
:100BB00080B588B000AFF860B96007F1160107F1A1
:100BC000140319221846FFF7B1FFFB8A07EE903A8B
:100BD000F8EE677AC7ED077ABB8A07EE903AF8EE2F
:100BE000677AC7ED067A264B93ED007AD7ED077A40
:100BF00027EE277A224BD3ED016AD7ED067A66EE0F
:100C0000A77A37EE277A1E4BD3ED027A77EE277A52
:100C1000FDEEE77AC7ED017ABA88FB681A80184BB7
:100C200093ED037AD7ED077A27EE277A144BD3EDAD
:100C3000046AD7ED067A66EEA77A37EE277A104B6C
:100C4000D3ED057A77EE277AFDEEE77AC7ED017AE4
:100C5000BA88BB681A80BB681B88B3F5FA7F02D9D3
:100C6000BB6800221A80FB681B88B3F5FA7F02D9A3
:100C7000FB6800221A8000BF2037BD4680BD00BF40
:100C800048BC002080B582B000AF134B7B60134B93
:100C90003B6007E03B681A1D3A607A68111D796075
:100CA00012681A603B680E4A9342F3D30D480E490E
:100CB0004FF000028842B8BF40F8042BFADBDFF89F
:100CC0002C00016841F47001016000F085FB00BF59
:100CD0000837BD4680BD00BFD8E2000800000020F4
:100CE000D8050020D80500207C28012088ED00E0F0
:100CF00080B500AF002000F003FCFEE780B400AF39
:100D0000BFF34F8F0549054BDB6803F4E062044BEA
:100D10001343CB60BFF34F8FFEE700BF00ED00E051
:100D20000400FA0580B582B000AF78603960102108
:100D3000014803F045FBFEE70010024080B400AF1D
:100D4000044B1B680133034A136000BFBD465DF8C6
:100D5000047B7047F405002080B582B000AF01210C
:100D6000042000F0A9FC0121082000F0A5FC0121CD
:100D70004FF4804000F084FD0D210220FFF732FA8D
:100D800001233B714FF470433B6002237B710023CE
:100D9000BB710023FB713B4619460F4803F068F90D
:100DA00001233B714FF400533B6002237B7100230E
:100DB000BB710223FB713B461946084803F058F902
:100DC0000121402000F0B2FC012006F0AFF900BF85
:100DD0000837BD4680BD00BF000C0240000802403D
:100DE00080B500AF4FF4005006F070FA0346002BB8
:100DF00010D0094B1B78002B01D0FFF77FFF4FF479
:100E0000005006F0E1FAB321044800F079FB024BF0
:100E100001221A7000BF80BDF805002030BE000816
:100E200080B592B000AF786002F082FC4FF6FF70A0
:100E300002F062FC002002F019FE002387F8473020
:100E4000282387F84030002387F84130002387F8B3
:100E50004230012387F8433007F14003184606F07B
:100E6000CFFA002387F83C304FF40053BB630223D2
:100E700087F83D30002387F83E30022387F83F3063
:100E800007F138031946884803F0F2F8002387F881
:100E900046300221844803F001FA0346002B40F05B
:100EA0000D8197F84730002B40F0F9807F4980484A
:100EB000FFF77EFE7F4B1B68184605F0D7FD034603
:100EC000002B40F0E980002387F8453000233B7376
:100ED0000023FB6100237B620023BB620023FB62D3
:100EE00000233B6300233B8400233B6100237B61A1
:100EF0000023BB616D4B1B88312B08D86E4B5B68A0
:100F000003F5C8437B61012387F845300FE0674B49
:100F10001B88642B0BD9654B1B88952B07D8664B18
:100F20005B68A3F5C8437B61012387F84530604BBC
:100F30001B884F2B0CD85D4B1B88952B08D85E4B1C
:100F40001B68A3F5C8433B61012387F845300FE0D8
:100F5000574B1B88A02B0BD9544B1B88952B07D8BC
:100F6000554B1B6803F5C8433B61012387F84530A7
:100F70004E4B1B88312B11D94C4B1B88642B0DD841
:100F80004B4B1B884F2B09D9494B1B88A02B05D8ED
:100F900097F84530002B01D106F0E8FB97F8453073
:100FA000012B07D107F10C03184606F0A1FB6420C2
:100FB00000F0A0FF3D4B1B889F2B16D93B4B1B8895
:100FC000D22B12D83A4B1B88502B03D8012387F819
:100FD00046300AE0364B1B88A02B03D8022387F843
:100FE000463002E0032387F84630304B1B88DB2B6A
:100FF00017D92E4B1B88B3F5877F12D82C4B1B8833
:10100000502B03D8042387F846300AE0284B1B886E
:10101000A02B03D8052387F8463002E0062387F883
:101020004630224B1B88B3F58C7F35D31F4B1B8872
:10103000B3F5AF7F30D81E4B1B88772B2CD997F890
:101040004630013B052B27D801A252F823F000BF00
:10105000691000086F100008771000088110000860
:10106000891000089110000806F054FC14E00020DC
:1010700006F02EFE10E02821282006F0A1FB0BE050
:10108000282006F0A3FC07E0052006F09FFC03E003
:10109000002006F08FFF00BF0A2000F02BFF012385
:1010A00087F847303FE100BF000802406C0600208F
:1010B0006A060020782801205C1E0120002387F8A2
:1010C0004730A64B186800234FF0FF32002105F08F
:1010D00017FCA34802F0A6FE4FF6FF7002F0D6FC04
:1010E0001F2002F0C3FC962350220021502002F062
:1010F00035FB9623A0220021A02002F02FFB3223F3
:10110000F0223221002002F029FB6423F022642126
:10111000002002F023FB9623F0229621002002F00B
:101120001DFBD2235022A021002002F025FCD22357
:10113000A022A021502002F01FFCD223EF22A021E8
:10114000A02002F019FC4FF487735022DC2100200C
:1011500002F012FC4FF48773A022DC21502002F031
:101160000BFC4FF48773EF22DC21A02002F004FC7B
:101170004FF4AF73EF2240F22711782002F0FCFB0E
:10118000002002F073FC774A1421142002F06EFE56
:10119000754A1421642002F069FE744A1421B420B7
:1011A00002F064FE724A4621142002F05FFE714A8A
:1011B0004621642002F05AFE6F4A4621B42002F014
:1011C00055FE6E4A7821142002F050FE6C4A7821B8
:1011D000642002F04BFE6B4A7821B42002F046FEF8
:1011E000694A4FF4A071822002F040FE674AB421A0
:1011F000052002F03BFE664AB421552002F036FE7F
:10120000644AB421A52002F031FE634AF021052092
:1012100002F02CFE614AF021552002F027FE604AC0
:10122000F021A52002F022FE97F846305D4A4FF4E7
:10123000A071142002F076FE002387F8443004E009
:1012400097F84430013387F8443097F84430022B44
:10125000F6D9434802F0E6FD4FF6FF7002F016FCA7
:101260001F2002F003FC504B1B68504A4FF4B4712E
:10127000002002F057FE4C4B1B6807EE903AF8EE48
:10128000E77A9FED4B7AC7EE876A0223B0EE660AD3
:10129000484A40F27711002002F096FE002002F04A
:1012A000E5FB414B5B68444A4FF4B471642002F0A3
:1012B00039FE3D4B5B6807EE903AF8EEE77A9FED1A
:1012C0003C7AC7EE876A0223B0EE660A3B4A40F2D8
:1012D0007711642002F078FE1F2002F0C7FB384B24
:1012E0001B68184605F0C2FB0346364A4FF4C2712C
:1012F000642002F017FE344B1B785A1CD1B2324ADC
:1013000011701A464FF4C271D22002F0F1FD134B56
:10131000186800230022002105F014FA05F0A6F851
:101320000A2000F0E7FD264B1B68184605F09EFBDF
:101330000346002B0ED1142000F0DCFD234B5B781C
:101340000133DAB2214B5A70214B1B780133DAB2E8
:101350001F4B1A701F4B00221A609AE5A0BC002098
:10136000ECA1000854BE00085CBE000860BE000886
:1013700068BE00086CBE000874BE000878BE000895
:1013800080BE000884BE00088CBE000894BE000821
:101390009CBE0008A4BE0008ACBE0008B4BE000895
:1013A000BCBE0008C4BE00085C1E0120D0BE000800
:1013B00000002045D4BE0008D8BE0008DCBE0008EE
:1013C00078280120E0BE00086E060020FC05002001
:1013D0006F060020F405002090B589B004AF00230B
:1013E000FB7306E0FB7B3B4A0021D154FB7B0133BE
:1013F000FB73FB7B6D2BF5D9FFF7AEFC03F064FAB2
:1014000001F074FE01F0CAFF02F092F9002002F030
:1014100073F9FFF74FFA4FF400537B600123BB725F
:1014200000233B7208237B723B1D184605F0A6FE85
:10143000294B1C6800F0FCFE0246002300930023A9
:101440000221204600F07CFA012005F03DF9024619
:10145000224B1A6000222C21142005F0FDF80246D0
:101460001F4B1A6000230393002302930023019370
:101470000223009300234FF480621A491A4800F0B7
:101480009FFC0023039300230293184B0193042332
:10149000009300234FF480621549164800F090FC39
:1014A000002303930023029300230193032300935B
:1014B00000234FF480621049104800F081FC4FF483
:1014C000005005F081FF00F0E7FD002318461437B7
:1014D000BD4690BDFC0500209CBC0020A0BC0020A7
:1014E00078280120E8BE0008210E000894BC0020E6
:1014F000F0BE0008195A0008F8BE000899820008DA
:1015000090B583B000AF7860396000F0F7FD10212E
:10151000544802F0A7FF4FF4784002F0EDF84FF680
:10152000FF7002F0A3FA4FF4784002F0AFFA4E4891
:1015300002F078FC4D4B1A684D4913461B019B1A6B
:10154000DB000B440833D3E900344A4A0021002071
:1015500002F0E8FC454B1A68454913461B019B1AEB
:10156000DB000B441833D3E90034434A0A2100203E
:1015700002F0D8FC4CF2186002F078FA3B4B1A6883
:101580003B4913461B019B1ADB000B44D3E9003493
:101590003A4A1921002002F0C5FC344B1A6834493C
:1015A00013461B019B1ADB000B441033D3E90034B4
:1015B000334A2321002002F0B5FC4FF4FC6002F016
:1015C00055FA304B1B68304A4FF4BE71002002F0D0
:1015D000A9FC4FF6FF7002F049FA2A4B5B682B4AD0
:1015E0004FF4C371002002F09DFC204B1B68284A79
:1015F0003221002002F096FC264B1B68264A3C2133
:10160000002002F08FFC254B1B68254A4B2100204F
:1016100002F088FC234B9B7C234A5521002002F0DA
:1016200081FC4FF6E07002F021FA3B681F4AC821A6
:10163000502002F077FC1E4B00221A704FF400512C
:101640001C4802F02BFE0346012B06D1184B1B78D9
:10165000012BF3D1FFF752FBF0E7154B01221A7073
:10166000ECE700BF00100240ECA10008581E01206A
:10167000701E012004BF00080CBF000814BF000842
:101680001CBF00085C1E0120D0BE0008D8BE0008A8
:1016900024BF0008681E012030BF00080808002091
:1016A0003CBF0008FC05002044BF00084CBF0008F8
:1016B000F80500200008024080B582B000AF7860D5
:1016C0000B46FB707A68164B1340002B02D17B68E7
:1016D000002B04D14FF488611248FFF711FFFB780B
:1016E000002B07D0FB78012B04D040F242410D487B
:1016F000FFF706FFFB78002B06D00B490A4B1A6B4D
:101700007B6813430B6306E00749074B1A6B7B6842
:10171000DB4313400B6300BF0837BD4680BD00BFED
:1017200000EE8B8154BF00080038024080B582B0C3
:1017300000AF78600B46FB707B6823F0F103002B51
:1017400002D17B68002B04D14FF48C611148FFF764
:10175000D7FEFB78002B07D0FB78012B04D040F29A
:1017600061410C48FFF7CCFEFB78002B06D00A49FC
:10177000094B5A6B7B6813434B6306E00649064BE3
:101780005A6B7B68DB4313404B6300BF0837BD4691
:1017900080BD00BF54BF00080038024080B582B051
:1017A00000AF78600B46FB707B6823F00103002BD1
:1017B00002D17B68002B04D140F27B411148FFF736
:1017C0009FFEFB78002B07D0FB78012B04D040F262
:1017D0007C410C48FFF794FEFB78002B06D00A49A9
:1017E000094B9A6B7B6813438B6306E00649064BF3
:1017F0009A6B7B68DB4313408B6300BF0837BD46A1
:1018000080BD00BF54BF00080038024080B582B0E0
:1018100000AF78600B46FB707A68164B1340002BC4
:1018200002D17B68002B04D140F2AD411248FFF792
:1018300067FEFB78002B07D0FB78012B04D040F229
:10184000AE410D48FFF75CFEFB78002B06D00B493C
:101850000A4B1A6C7B6813430B6406E00749074B7D
:101860001A6C7B68DB4313400B6400BF0837BD462E
:1018700080BD00BF003601C954BF000800380240D7
:1018800080B582B000AF78600B46FB707A68164B6B
:101890001340002B02D17B68002B04D140F2D541CC
:1018A0001248FFF72DFEFB78002B07D0FB78012BA9
:1018B00004D040F2D6410D48FFF722FEFB78002B02
:1018C00006D00B490A4B5A6C7B6813434B6406E005
:1018D0000749074B5A6C7B68DB4313404B6400BFDE
:1018E0000837BD4680BD00BFCCA0F8FF54BF00083C
:1018F0000038024080B586B004AF00237B6000F062
:1019000029FA0C4B1B68002B0FD0002303930023F4
:101910000293002301930323009300234FF480627A
:101920000549064800F04CFA78607B68184608378D
:10193000BD4680BDA006002094BF0008251A0008FF
:1019400080B588B000AFF860B9607A603B60002372
:10195000FB611A4B1B68002B2AD0BB683B617B687C
:101960007B61FB68BB61BB68052B18DC01F05EF88E
:101970000346022B09D1114B186807F1100100230F
:10198000BA6A04F0DFFEF86112E00C4B186807F148
:1019900010010023002204F0D5FEF86108E0074B97
:1019A000186807F1100100233A6804F05BFFF86142
:1019B000FB6918462037BD4680BD00BFA006002049
:1019C00080B586B002AF78603960154B1B68DB6864
:1019D000DB68FB60FB680433184602F04BFFFB68D2
:1019E000DB69012B14D1FB689A697B68D1187B688D
:1019F0003A68F86800F0A2F80346012B08D10023EA
:101A0000009300237A680021F868FFF799FFB86017
:101A1000FB685B6AF868984700BF1037BD4680BD19
:101A20009806002080B584B000AF786007F1080305
:101A3000184600F03FF8F860BB681946F86800F0F7
:101A400003F800F0BDF8F1E780B584B000AF78602E
:101A5000396000F061FB07F10803184600F04EF80A
:101A6000F860BB68002B1DD13B68002B0AD17A6857
:101A7000FB689A4206D800F05DFBF9687868FFF7CA
:101A80009FFF11E00A4B18687A68FB68D31A194661
:101A900005F030F900F04EFB0346002B04D104F0B2
:101AA000E5FC01E000F046FB00BF1037BD4680BDFD
:101AB000A006002080B485B000AF78600E4B1B6894
:101AC0001B68002B0CBF01230023DBB21A467B6886
:101AD0001A607B681B68002B05D1074B1B68DB680D
:101AE0001B68FB6001E00023FB60FB6818461437AD
:101AF000BD465DF8047B70479806002080B584B031
:101B000000AF786000F094FBF8600B4B1B68FA683C
:101B10009A4205D200F0CAF87B6801221A6002E0FE
:101B20007B6800221A60044AFB681360FB68184651
:101B30001037BD4680BD00BFA406002080B586B02A
:101B400000AFF860B9607A603B6000237B61FB689E
:101B5000BA685A60FB68FA681A61BA687B689A4288
:101B600012D87A683B68D21AFB689B699A4202D302
:101B700001237B611BE0104B1A68FB680433194694
:101B8000104602F03DFE12E07A683B689A4206D2A7
:101B9000BA683B689A4202D301237B6107E0074B96
:101BA0001A68FB6804331946104602F029FE7B6967
:101BB00018461837BD4680BD9C06002098060020B8
:101BC00080B58AB002AF60E0BB68002B5DDB3B698B
:101BD000FB61FB695B69002B04D0FB690433184689
:101BE00002F048FE3B1D1846FFF788FFB861BB684E
:101BF000092B49D801A252F823F000BF251C000888
:101C0000251C0008251C00088B1C0008671C000808
:101C1000811C0008251C0008251C00088B1C0008DE
:101C2000671C0008FA68FB699B69D118FB68BA69F0
:101C3000F869FFF783FF0346012B26D1FB695B6A36
:101C4000F8699847FB69DB69012B1ED1FA68FB69CB
:101C50009B691A440023009300230021F869FFF7D1
:101C60006FFE786111E0FA68FB699A61FB699A6915
:101C7000BB69D118BB69BA69F869FFF75FFF04E077
:101C8000F86905F0C9FC00E000BF074B186807F1D0
:101C900008010023002204F033FE0346002B93D1F9
:101CA00000BF2037BD4680BDA006002080B588B0AB
:101CB00002AF37E0254B1B68DB681B687B61234B59
:101CC0001B68DB68DB683B613B690433184602F044
:101CD000D1FD3B695B6A386998473B69DB69012B39
:101CE00020D13B699A697B691344FB60FA687B6980
:101CF0009A420ED93B69FA685A603B693A691A619F
:101D0000124B1A683B6904331946104602F078FDFD
:101D100008E00023009300237A6900213869FFF767
:101D20000FFEB860094B1B681B68002BC2D1074B24
:101D30001B687B60064B1B68044A1360044A7B687F
:101D4000136000BF1837BD4680BD00BF9806002055
:101D50009C06002080B500AF04F09AFB124B1B6874
:101D6000002B1DD1114802F0F9FC114802F0F6FCDD
:101D7000104B0E4A1A60104B0D4A1A6000220C21BB
:101D8000052004F069FC0246074B1A60064B1B68ED
:101D9000002B05D0044B1B680849184604F082FF4D
:101DA00004F088FB00BF80BDA00600207006002064
:101DB00084060020980600209C0600209CBF000896
:101DC00080B58AB002AFF860B9603B601346FB8013
:101DD000FB88396B184600F089FDB861BB69002BA0
:101DE00065D0BB691A6BFB8803F18043013B9B0004
:101DF00013447B617B6923F007037B61FB880093BD
:101E00007B6BBA6AB968B86900F070FC3A68F96827
:101E1000786904F0A1FA0246BB691A60FB6A002BDC
:101E200002D0FB6ABA691A6004F032FB2B4B1B68C4
:101E300001332A4A13602A4B1B68002B09D1284A18
:101E4000BB691360254B1B68012B0FD100F09CFC74
:101E50000CE0244B1B68002B08D1214B1B68DA6A6D
:101E6000BB6A9A4202D81E4ABB6913601E4B1B68AC
:101E700001331D4A1360BB69DB6A01229A401B4B88
:101E80001B681343194A1360BB69DA6A13469B0047
:101E900013449B00164A1A44BB6904331946104682
:101EA00002F08AFC0123FB6104F004FB02E04FF026
:101EB000FF33FB61FB69012B0BD10A4B1B68002B25
:101EC00007D0074B1B68DA6ABB6A9A4201D204F05A
:101ED000CDFAFB6918462037BD4680BDE4070020D7
:101EE000A8060020F007002000080020EC070020D2
:101EF000AC06002080B584B000AF78600023FB60A2
:101F00007B68002B21D000F007F9144B1A687B681E
:101F10001344BB60124B1B680433184602F0AAFC42
:101F20000346002B0BD10E4B1B68DB6A012202FA21
:101F300003F3DA430B4B1B6813400A4A1360B8687B
:101F400000F09EFC00F0F6F8F860FB68002B01D171
:101F500004F08CFA00BF1037BD4680BDE8070020B2
:101F6000A8060020EC07002080B586B000AF78609E
:101F7000396000237B613B68092B01D909233B6051
:101F800004F086FA7B68002B02D1404B1B6800E00E
:101F90007B683B613B695B6CFB60FA683B689A421B
:101FA0006ED03A68FB689A420DD9384B1B683A6983
:101FB0009A420FD0354B1B68DA6A3B689A4209D8BF
:101FC00001237B6106E0314B1B683A699A4201D1DB
:101FD00001237B613B69DB6ABB603B695A6C3B69EF
:101FE000DB6A9A4202D13B693A68DA623B693A6835
:101FF0005A643B699B69002B04DB3B68C3F10A020E
:102000003B699A613B695969BA6813469B0013445E
:102010009B001F4A1344994201D1012300E0002391
:10202000002B28D03B690433184602F023FC0346FA
:10203000002B09D10122BB6802FA03F3DA43154BE6
:102040001B681340134A13603B69DB6A01229A4004
:10205000104B1B6813430F4A13603B69DA6A13463F
:102060009B0013449B000A4A1A443B6904331946F7
:10207000104602F0A1FB7B69012B01D104F0F6F9B7
:1020800004F018FA00BF1837BD4680BDA80600202E
:10209000AC060020EC07002080B586B004AF00231A
:1020A0000393002302930023019300230093002352
:1020B0004FF480620D490E48FFF782FE78607B681E
:1020C000012B02D1FFF716FC78607B68012B09D148
:1020D00004F002FA074B01221A60074B00221A6033
:1020E00004F094F900BF0837BD4680BDA4BF0008C6
:1020F000CD260008F0070020E807002080B500AFDB
:1021000004F0EAF9034B00221A6004F0A7F900BFBB
:1021100080BD00BFF007002080B400AF044B1B68F7
:102120000133034A136000BFBD465DF8047B70476E
:102130000408002080B582B000AF00237B6004F06B
:10214000A7F9334B1B68013B314A1360304B1B68C6
:10215000002B55D12F4B1B68002B51D02EE02E4B5E
:10216000DB68DB683B603B681833184602F082FB93
:102170003B680433184602F07DFB3B68DB6A0122B2
:102180009A40264B1B681343244A13603B68DA6A63
:1021900013469B0013449B00214A1A443B680433B6
:1021A0001946104602F008FB3B68DA6A1D4B1B68B3
:1021B000DB6A9A4202D31C4B01221A60164B1B6841
:1021C000002BCCD1194B1B68002B11D00CE000F078
:1021D00041F80346002B02D0134B01221A60134B27
:1021E0001B68013B114A1360104B1B68002BEED19A
:1021F0000D4B1B68012B03D101237B6004F036F9E2
:1022000004F058F97B6818460837BD4680BD00BF0A
:1022100004080020E4070020A4070020EC070020A9
:10222000AC060020A8060020F8070020F4070020D4
:1022300080B582B000AF04F02BF9054B1B687B60C2
:1022400004F038F97B6818460837BD4680BD00BFEA
:10225000E807002080B586B000AF00237B614D4BBE
:102260001B68002B40F084804B4B1B6801334A4AAB
:102270001360494B1B683B613B69002B10D1474BF6
:102280001B68FB60464B1B68444A1360444AFB686A
:102290001360444B1B680133424A136000F0A0FBFB
:1022A000414B1B683A699A424DD33C4B1B681B68F3
:1022B000002B01D1012300E00023002B04D03A4B76
:1022C0004FF0FF321A603EE0344B1B68DB68DB687E
:1022D000BB60BB685B687B603A697B689A4203D2EB
:1022E000314A7B6813602EE0BB680433184602F065
:1022F000C1FABB689B6A002B04D0BB681833184630
:1023000002F0B8FABB68DB6A01229A40274B1B68CF
:102310001343264A1360BB68DA6A13469B001344D2
:102320009B00234A1A44BB6804331946104602F046
:1023300043FABB68DA6A1F4B1B68DB6A9A42B4D364
:1023400001237B61B1E71B4B1B68DA6A184913460E
:102350009B0013449B000B441B68012B01D90123F4
:102360007B61154B1B68002B09D1FEF7E7FC06E0EB
:10237000114B1B680133104A1360FEF7DFFC0F4B53
:102380001B68002B01D001237B617B69184618373D
:10239000BD4680BD04080020E80700209C070020FF
:1023A000A0070020FC07002000000020EC07002010
:1023B000AC060020A8060020F4070020F807002043
:1023C00080B584B000AF244B1B68002B03D0234B97
:1023D00001221A603BE0214B00221A60204B1B684F
:1023E0001A681F4B1B681B6B9A4208D81C4B1A6853
:1023F0001B4B1B68343319461046FEF793FC194BF0
:102400001B687B607B68B3FA83F3FB70FB78C3F1D6
:102410001F03FB60FA6813469B0013449B00124A9B
:102420001344BB60BB685B685A68BB685A60BB6892
:102430005A68BB6808339A4204D1BB685B685A6823
:10244000BB685A60BB685B68DB68054A136000BF05
:102450001037BD4680BD00BF04080020F8070020EB
:10246000A8060020EC070020AC06002080B584B050
:1024700000AF786039601A4B1B68183319467868CA
:1024800002F0BEF9164B1B680433184602F0F2F94D
:102490000346002B0BD1124B1B68DB6A012202FAA8
:1024A00003F3DA430F4B1B6813400E4A13603B687B
:1024B000B3F1FF3F07D10A4B1B68043319460A48A2
:1024C00002F07AF907E0094B1A683B681344FB6095
:1024D000F86800F0D5F900BF1037BD4680BD00BFD9
:1024E000A8060020EC070020D0070020E807002005
:1024F00080B584B000AF78603960144B1B68183326
:102500001946786802F058F9104B1B6804331846D6
:1025100002F0B0F90346002B0BD10C4B1B68DB6AB1
:10252000012202FA03F3DA43094B1B681340084AFD
:102530001360084B1A683B681344FB60F86800F0AE
:102540009FF900BF1037BD4680BD00BFA806002020
:10255000EC070020E807002080B584B000AF786069
:102560007B68DB68DB68BB60BB681833184602F029
:1025700081F91D4B1B68002B1CD1BB680433184626
:1025800002F078F9BB68DB6A01229A40174B1B689E
:102590001343164A1360BB68DA6A13469B00134460
:1025A0009B00134A1A44BB6804331946104602F0D4
:1025B00003F905E0BB68183319460E4802F0FCF831
:1025C000BB68DA6A0C4B1B68DB6A9A4205D90123A7
:1025D000FB600A4B01221A6001E00023FB60FB68EC
:1025E00018461037BD4680BD04080020EC070020C7
:1025F000AC060020A4070020A8060020F807002051
:1026000080B483B000AF7860064B1A687B681A60AC
:10261000054B1A687B685A6000BF0C37BD465DF8F1
:10262000047B7047FC070020E807002080B584B0D9
:1026300000AF7860396003F02BFF1C4B1B68BB6058
:102640003B681B68B3F1FF3F02D10023FB6026E02B
:102650007B681A68164B1B689A4207D07B685A68D9
:10266000BB689A4202D80123FB6018E07B685B6874
:10267000BA68D21A3B681B689A420ED23B681A6845
:102680007B685968BB68CB1A1A443B681A60786843
:10269000FFF7B6FF0023FB6001E00123FB6003F0BE
:1026A00009FFFB6818461037BD4680BDE8070020CB
:1026B000FC07002080B400AF034B01221A6000BF6A
:1026C000BD465DF8047B7047F807002080B582B0F6
:1026D00000AF786000F098F8034B1B68012BF9D924
:1026E00003F0C4FEF6E700BFAC06002080B586B05C
:1026F00000AFF860B9607A603B6000237B6112E054
:10270000BA687B6913441978FA687B6913443433D7
:102710000A461A70BA687B6913441B78002B06D0EE
:102720007B6901337B617B690F2BE9D900E000BF36
:10273000FB68002283F843207B68092B01D9092319
:102740007B60FB687A68DA62FB687A685A64FB68C7
:1027500000229A64FB680433184602F01FF8FB68F5
:102760001833184602F01AF8FB68FA681A617B6899
:10277000C3F10A02FB689A61FB68FA685A6200BFFB
:102780001837BD4680BD00BF80B582B000AF0023C2
:102790007B600CE07A6813469B0013449B00124A4E
:1027A0001344184601F0DAFF7B6801337B607B68D5
:1027B000092BEFD90D4801F0D1FF0D4801F0CEFFF4
:1027C0000C4801F0CBFF0C4801F0C8FF0B4801F0AA
:1027D000C5FF0B4B054A1A600A4B054A1A6000BF39
:1027E0000837BD4680BD00BFAC060020740700203E
:1027F00088070020A4070020B8070020D007002089
:102800009C070020A007002080B582B000AF28E020
:10281000FFF782FC174B1B68002B0CBF0123002322
:10282000DBB27B60FFF786FC7B68002B19D103F0DD
:102830002FFE104BDB68DB683B603B6804331846B7
:1028400002F018F80C4B1B68013B0B4A13600B4B52
:102850001B68013B094A136003F02CFE386800F046
:10286000AFF8064B1B68002BD2D100BF0837BD461E
:1028700080BD00BFB8070020E4070020CC0700207F
:1028800080B582B000AF7860134B1B687A685A60DD
:10289000124B1B687A689A4209D2114B1A680E4B88
:1028A0001B6804331946104601F0AAFF10E00D4BD7
:1028B0001A68094B1B6804331946104601F0A0FF43
:1028C000094B1B687A689A4202D2074A7B681360F8
:1028D00000BF0837BD4680BDA8060020E8070020DD
:1028E000A00700209C0700200000002080B584B0D5
:1028F00000AF03463960FB804C2004F0FFFDF86018
:10290000FB68002B1ED03B68002B06D1FB889B0088
:10291000184604F0F3FD034600E03B68FA681363D1
:10292000FB681B6B002B05D1F86804F075FE0023D3
:10293000FB6007E0FB68186BFB889B001A46A5212B
:1029400007F088FAFB6818461037BD4680BD00BF07
:1029500080B485B000AF78600023FB6005E07B6841
:1029600001337B60FB680133FB607B681B78A52B20
:10297000F5D0FB689B08FB60FB689BB218461437D8
:10298000BD465DF8047B704780B586B000AF7860C7
:102990007B68002B02D1094B1B6800E07B687B61E0
:1029A0007B691B6B3B613869FFF7D2FF0346FB6015
:1029B000FB6818461837BD4680BD00BFA80600203A
:1029C00080B582B000AF78607B681B6B184604F05E
:1029D00023FE786804F020FE00BF0837BD4680BDA6
:1029E00080B483B000AF0F4B1B681B68002B01D174
:1029F000012300E00023002B04D00B4B4FF0FF32EB
:102A00001A6008E0074B1B68DB68DB687B607B684B
:102A10005B68054A136000BF0C37BD465DF8047B58
:102A2000704700BF9C0700200000002080B483B0E6
:102A300000AF0B4B1B68002B02D101237B6008E029
:102A4000084B1B68002B02D102237B6001E00023AE
:102A50007B607B6818460C37BD465DF8047B704789
:102A6000F00700200408002080B584B000AF786033
:102A70007B68FB607B68002B62D0FB68DA6A324BB4
:102A80001B68DB6A9A425BD2FB689B69002B06DB02
:102A90002D4B1B68DB6AC3F10A02FB689A61FB6875
:102AA0005969FB68DA6A13469B0013449B00274A66
:102AB0001344994201D1012300E00023002B3AD0B6
:102AC000FB680433184601F0D5FE0346002B15D1F0
:102AD000FB68DA6A1D4913469B0013449B000B44B4
:102AE0001B68002B0AD1FB68DB6A012202FA03F3A0
:102AF000DA43174B1B681340154A1360124B1B68CF
:102B0000DA6AFB68DA62FB68DB6A01229A40104BE2
:102B10001B6813430E4A1360FB68DA6A13469B0076
:102B200013449B00094A1A44FB68043319461046B3
:102B300001F042FE04E0044B1B68DA6AFB68DA62CB
:102B400000BF1037BD4680BDA8060020AC0600209F
:102B5000EC07002080B584B000AF78607B68BB6074
:102B60000023FB607B68002B4FD0BB689B6C5A1E18
:102B7000BB689A64BB68DA6ABB685B6C9A4244D0F3
:102B8000BB689B6C002B40D1BB680433184601F036
:102B900071FE0346002B15D1BB68DA6A1D49134646
:102BA0009B0013449B000B441B68002B0AD1BB689D
:102BB000DB6A012202FA03F3DA43174B1B68134066
:102BC000154A1360BB685A6CBB68DA62BB68DB6A83
:102BD000C3F10A02BB689A61BB68DB6A01229A40B2
:102BE0000D4B1B6813430C4A1360BB68DA6A13462B
:102BF0009B0013449B00074A1A44BB6804331946E0
:102C0000104601F0D9FD0123FB60FB681846103720
:102C1000BD4680BDAC060020EC07002080B400AFAC
:102C2000074B1B68002B04D0054B1B689A6C0132C4
:102C30009A64034B1B681846BD465DF8047B7047D9
:102C4000A806002080B582B000AF78607B681B6862
:102C5000002B0FD07B681B68022B0BD07B681B6896
:102C6000042B07D07B681B68062B03D09221994860
:102C7000FEF746FC7B685B68002B07D07B685B68CF
:102C8000022B03D093219348FEF73AFC7B689B68A4
:102C9000002B0BD07B689B68042B07D07B689B685C
:102CA000082B03D094218B48FEF72AFC7B68DB6855
:102CB000002B07D07B68DB68102B03D0952185485B
:102CC000FEF71EFC7B681B69002B08D07B681B6924
:102CD000B3F5807F03D096217E48FEF711FC7B6818
:102CE0005B69002B08D07B685B69B3F5004F03D0AC
:102CF00097217848FEF704FC7B689B69002B08D07D
:102D00007B689B69B3F5007F03D098217148FEF77B
:102D1000F7FB7B68DB69002B08D07B68DB69B3F5C8
:102D2000806F03D099216B48FEF7EAFB7B681B6A32
:102D3000002B08D07B681B6AB3F5006F03D09A2183
:102D40006448FEF7DDFB7B685B6A002B08D07B687C
:102D50005B6AB3F5805F03D09B215E48FEF7D0FB32
:102D60007B689B6A002B08D07B689B6AB3F5005F89
:102D700003D09C215748FEF7C3FB7B68DB6A002B1E
:102D800008D07B68DB6AB3F5804F03D09D215148A2
:102D9000FEF7B6FB7B681B6B002B08D07B681B6BB8
:102DA000B3F5002F03D09E214A48FEF7A9FB7B68AC
:102DB0005B6B1B680F2B03D99F214648FEF7A0FBD6
:102DC0007B685B6B5B680F2B03D9A0214148FEF742
:102DD00097FB7B685B6B9B68002B04D07B685B6B0D
:102DE0009B68FF2B03D9A1213A48FEF789FB7B683A
:102DF0005B6BDB680F2B03D9A2213648FEF780FB03
:102E00007B685B6B1B690F2B03D9A3213148FEF74D
:102E100077FB7B685B6B5B690F2B03D9A4212D4883
:102E2000FEF76EFB7B685B6B9B69002B15D07B68A4
:102E30005B6B9B69B3F1805F0FD07B685B6B9B69B9
:102E4000B3F1005F09D07B685B6B9B69B3F1405FB6
:102E500003D0A5211F48FEF753FB4FF020407B68AD
:102E60001B687A6851687A68926811437A68D268F8
:102E700011437A68126911437A68526911437A687A
:102E8000926911437A68D26911437A68126A1143D0
:102E90007A68526A11437A68926A11437A68D26AF0
:102EA00011437A68126B0A4340F823207B689B68C1
:102EB000082B11D14FF020417B681B684FF0204058
:102EC0007A68126850F8222042F0400241F823202C
:102ED00002E000BFACBF00084FF020407B681B68D9
:102EE00001337A68526B11687A68526B526812012A
:102EF00011437A68526B9268120211437A68526BDE
:102F0000D268120411437A68526B12691205114398
:102F10007A68526B5269120611437A68526B926951
:102F20000A4340F823207B68DB6AB3F5804F6DD1FC
:102F30007B689B6B1B680F2B03D9C7213948FEF7B1
:102F4000DFFA7B689B6B5B680F2B03D9C821354880
:102F5000FEF7D6FA7B689B6B9B68002B04D07B68DE
:102F60009B6B9B68FF2B03D9C9212E48FEF7C8FA3B
:102F70007B689B6B1B690F2B03D9CA212948FEF77D
:102F8000BFFA7B689B6B5B690F2B03D9CB2125486C
:102F9000FEF7B6FA7B689B6B9B69002B15D07B68AC
:102FA0009B6B9B69B3F1805F0FD07B689B6B9B69C8
:102FB000B3F1005F09D07B689B6B9B69B3F1405F05
:102FC00003D0CC211748FEF79BFA17487B681B6893
:102FD0007A68926B11687A68926B52681201114399
:102FE0007A68926B9268120211437A68926B126946
:102FF000120511437A68926B5269120611437A687E
:10300000926B92690A4340F8232006E0064A7B68E7
:103010001B686FF0704142F8231000BF0837BD46AF
:1030200080BD00BFACBF0008040100A080B582B025
:1030300000AF78600B46FB707B68002B0DD07B687F
:10304000022B0AD07B68042B07D07B68062B04D0A8
:103050004FF487711648FEF753FAFB78002B07D020
:10306000FB78012B04D040F20F111148FEF748FA0B
:10307000FB78002B0CD04FF020414FF020427B68B2
:1030800052F8233043F001027B6841F823200BE023
:103090004FF020414FF020427B6852F82320054B2F
:1030A00013407A6841F8223000BF0837BD4680BD22
:1030B000ACBF0008FEFF0F0080B485B000AF034630
:1030C000FB80FB88084A02FB03F3FB6002E0FB681D
:1030D000013BFB60FB68002BF9D100BF1437BD46F4
:1030E0005DF8047B704700BFA086010080B58AB000
:1030F00000AF01210220FEF789FB01210220FEF72B
:10310000DBFA01233B6002233B7103237B71002325
:10311000BB710123FB713B4619461E4800F0A8FF16
:10312000022200211B4801F0EFF964233B621A4B95
:103130001B685B09194AA2FB0323DB099BB2013B15
:103140009BB2BB830023BB840023FB8307F11C03DA
:103150001946134805F0B0F860233B8101237B81B9
:1031600064233B610023BB8207F1080319460C4826
:1031700005F004FB08210A4805F016FC0121084867
:1031800005F07AF90121064805F076FA00BF2837E4
:10319000BD4680BD0004024008000020C55A7C0ADC
:1031A0000004004080B5A0B000AF01211820FEF758
:1031B00083FA01210120FEF7F1FA4CF6B373BB67E5
:1031C000022387F87C30032387F87D30002387F8BB
:1031D0007E30012387F87F3007F1780319466D4868
:1031E00000F046FF0C2200216A4801F08DF90C2204
:1031F0000121684801F088F90C220421654801F09A
:1032000083F90C220521634801F07EF90C22072185
:10321000604801F079F90C2208215E4801F074F948
:103220000C2209215B4801F06FF90C220A21594850
:1032300001F06AF90C220B21564801F065F90C22C5
:103240000E21544801F060F90C220F21514801F081
:103250005BF94FF68073BB67022387F87C3003234A
:1032600087F87D30002387F87E30012387F87F3090
:1032700007F178031946484800F0FAFE0C220721AE
:10328000454801F041F90C220821434801F03CF97E
:103290000C220921404801F037F90C220A213E484E
:1032A00001F032F90C220B213B4801F02DF90C22E0
:1032B0000C21394801F028F90C220D21364801F083
:1032C00023F90C220E21344801F01EF90C220F21A3
:1032D000314801F019F90823BB67012387F87C30D6
:1032E000032387F87D30002387F87E30012387F899
:1032F0007F3007F178031946274800F0B9FE032311
:103300003B6200237B620F23BB620023FB6200232E
:103310003B6303237B630023BB6304237B600023A5
:10332000BB600523FB6000233B6100237B6103231B
:10333000BB610023FB610023FB6300233B6400238C
:103340007B641023BB640023FB6400233B650023E4
:103350007B650023BB650023FB654FF480533B6610
:1033600000237B664FF48043BB660023FB6607F1B6
:1033700020033B673B1D7B6707F13C031846FFF7C3
:1033800061FC01210020FFF751FE00BF8037BD46E0
:1033900080BD00BF000C02400010024080B500AFAD
:1033A00003F076F8FFF7FEFE5D4B08221A83052036
:1033B000FFF782FE5A4B08225A831E20FFF77CFE3D
:1033C000574B08221A830520FFF776FE112000F0E4
:1033D000ADF86420FFF770FED12000F0A7F80020C0
:1033E00000F0B4F8712000F0B1F8192000F0AEF848
:1033F000D02000F09BF8072000F0A8F8012000F092
:10340000A5F8082000F0A2F8362000F08FF8482038
:1034100000F09CF83A2000F089F8052000F096F8BA
:10342000C12000F083F8102000F090F8102000F088
:103430008DF8022000F08AF8022000F087F8C520FD
:1034400000F074F8042000F081F8D22000F06EF84B
:10345000012000F07BF8442000F078F8C02000F054
:1034600065F8002000F072F8352000F06FF80020B9
:1034700000F06CF8002000F069F8012000F066F818
:10348000022000F063F8C82000F050F8042000F09B
:103490005DF8672000F05AF8352000F057F8042056
:1034A00000F054F8082000F051F8062000F04EF823
:1034B000242000F04BF8012000F048F8372000F0FD
:1034C00045F8402000F042F8032000F03FF81020BB
:1034D00000F03CF8082000F039F8802000F036F8C1
:1034E000002000F033F8292000F020F80D4B0022D6
:1034F0001A7003220021012003F0AEF802460A4BA5
:103500001A60094B1B68002B06D0074B1868002374
:103510000022002103F016F902F0CCFF00BF80BDAD
:10352000001002406EC0002068C0002080B483B04C
:1035300000AF0346FB80044AFB88138000BF0C37B2
:10354000BD465DF8047B7047FEFF016080B483B028
:1035500000AF0346FB80044AFB88538000BF0C3752
:10356000BD465DF8047B7047FEFF016090B585B0F5
:1035700000AF0446084611461A462346FB80034620
:10358000BB800B467B8013463B802A4B1B78012B6C
:103590001BD1FB88FB81BB88FB80FB89BB807B88C0
:1035A000BB813B887B80BB893B80234B1A88BB88CF
:1035B000D31ABB80204B1A883B88D31A3B80BB8828
:1035C0007B813B88BB807B893B802A20FFF7AEFF55
:1035D000FB881B0A9BB21846FFF7B8FFFB8818460A
:1035E000FFF7B4FF7B881B0A9BB21846FFF7AEFFBC
:1035F0007B881846FFF7AAFF2B20FFF797FFBB88B1
:103600001B0A9BB21846FFF7A1FFBB881846FFF7BD
:103610009DFF3B881B0A9BB21846FFF797FF3B882C
:103620001846FFF793FF2C20FFF780FF00BF1437E9
:10363000BD4690BD6EC000200600002080B500AFE2
:103640000B4B1B78002B08D10A4B1A880A4B1B889E
:1036500000210020FFF78AFF07E0074B1A88054B7F
:103660001B8800210020FFF781FF00BF80BD00BF45
:103670006EC00020040000200600002080B485B049
:1036800000AF03463960FB800023FB6005E0084A79
:10369000FB885380FB680133FB603B68FA689A4201
:1036A000F5D300BF1437BD465DF8047B704700BFFB
:1036B000FEFF016080B485B000AF03463960FB8037
:1036C0000023FB6008E00B49FB881A04FB881343C6
:1036D0004B60FB680133FB603B68DA0F13445B10FF
:1036E0001A46FB689A42EED800BF1437BD465DF813
:1036F000047B7047FEFF016080B582B000AF0346D7
:10370000FB80FFF79BFF084B1B880133074A128899
:10371000013202FB03F2FB8811461846FFF7CAFF8D
:1037200000BF0837BD4680BD040000200600002011
:1037300080B500AFFFF782FF064B1B880133064AB6
:103740001288013202FB03F319460020FFF7B2FF93
:1037500000BF80BD040000200600002080B58CB0B2
:1037600000AFF860B9607A603B60BA683B689A4223
:1037700008D17A68FB68D31A1A46B968F86800F06D
:10378000A5F896E0FA687B689A4208D13A68BB6867
:10379000D31A1A46B968F86800F0C2F889E07A6866
:1037A000FB689A4203DD7A68FB68D31A02E0FA6884
:1037B0007B68D31AFB617A68FB689A4201DD0123BA
:1037C00001E04FF0FF337B833A68BB689A4203DD28
:1037D0003A68BB68D31A02E0BA683B68D31A7B61C7
:1037E0003A68BB689A4201DD012301E04FF0FF33E4
:1037F0007B82FB68FB62BB68BB62FA697B699A42A9
:103800002BD27B695B085B427B62FB6A98B2BB6A26
:1038100099B2FB6A9AB2BB6A9BB2FFF7A7FE294B2B
:10382000294A12885A80BA6A3B689A4244D0B7F94A
:103830001230BA6A1344BB627A6AFB6913447B6232
:103840007B6A002BE1DBB7F91A30FA6A1344FB629A
:103850007A6A7B69D31A7B62D7E7FB695B085B42B4
:103860003B62FB6A98B2BB6A99B2FB6A9AB2BB6AC6
:103870009BB2FFF77BFE134B134A12885A80FA6AF9
:103880007B689A421AD0B7F91A30FA6A1344FB627D
:103890003A6A7B6913443B623B6A002BE1DBB7F970
:1038A0001230BA6A1344BB623A6AFB69D31A3B62AC
:1038B000D7E7FFF7C3FE02E000BF00E000BF3037EC
:1038C000BD4680BDFEFF01606CC0002080B584B0A5
:1038D00000AFF860B9607A607B68002B06DA7B681D
:1038E0005B427B60FA687B68D31AFB60FB6898B226
:1038F000BB6899B2FB689AB27B689BB213449AB2D8
:10390000BB689BB2FFF732FE044B1B8879681846F0
:10391000FFF7B4FE00BF1037BD4680BD6CC000206D
:1039200090B585B000AFF860B9607A607B68002B15
:1039300006DA7B685B427B60BA687B68D31ABB603F
:10394000FB6898B2BB6899B2FB689CB2BB689AB23C
:103950007B689BB213449BB22246FFF707FE054BE0
:103960001B8879681846FFF789FE00BF1437BD46EB
:1039700090BD00BF6CC0002080B586B000AFF8607D
:10398000B9607A603B60FA687B689A4205DDFB6843
:103990007B617B68FB607B697B60BA683B689A42AD
:1039A00005DDBB683B613B68BB603B693B607A6897
:1039B000FB68D31A1A46B968F868FFF787FF7A6878
:1039C000FB68D31A1A463968F868FFF77FFF3A6830
:1039D000BB68D31A1A46B968F868FFF7A1FF3A68BE
:1039E000BB68D31A1A46B9687868FFF799FF00BF19
:1039F0001837BD4680BD00BF80B586B000AFF86007
:103A0000B9607A603B60FA687B689A4205DDFB68C2
:103A10007B617B68FB607B697B60BA683B689A422C
:103A200005DDBB683B613B68BB603B693B60FB6895
:103A300098B2BB6899B27B689AB23B689BB2FFF7B9
:103A400095FD094B18887A68FB68D31A01333968E9
:103A5000BA688A1A013202FB03F31946FFF70EFE19
:103A600000BF1837BD4680BD6CC0002080B483B055
:103A700000AF0346FB80044AFB88138000BF0C376D
:103A8000BD465DF8047B70476CC0002080B483B0F5
:103A900000AF78607B68B3F1FF3F03D1084B012290
:103AA0001A7006E07B689AB2064B1A80044B00221B
:103AB0001A7000BF0C37BD465DF8047B704700BF2D
:103AC0006FC000207CC0002080B483B000AF0346EC
:103AD000FB80044AFB88538000BF0C37BD465DF86D
:103AE000047B7047FEFF016090B58BB000AF0346CA
:103AF000B9607A60FB73944B1B78002B40F0FD801B
:103B0000924B1B78002B6CD1BB6898B27B6899B242
:103B10008F4B1B799AB2BB689BB213449BB2013B9B
:103B20009CB28B4B5B799AB27B689BB213449BB27D
:103B3000013B9BB22246FFF719FDFB7B844A927939
:103B40009B1A9AB2824B1B79DB08DBB299B2804B8D
:103B50005B799BB211FB03F39BB212FB03F39BB2A5
:103B60000433FB840023BB842EE0794B1A68FB8C62
:103B700013441B78BB74002387F823301AE0BA7C07
:103B800097F82330C3F1070342FA03F303F001036C
:103B9000002B05D06F4B1B881846FFF795FF04E0FC
:103BA0006D4B1B881846FFF78FFF97F823300133C2
:103BB00087F8233097F82330072BE0D9FB8C0133AB
:103BC000FB84BB8C0133BB84BA8C614B1B79DB0853
:103BD000DBB219465E4B5B7903FB01F39A42C4DB0F
:103BE00016E1FB7B5A4A92799B1A9AB2584B1B7981
:103BF000DB08DBB299B2564B5B799BB211FB03F346
:103C00009BB212FB03F39BB20433FB8400233B847F
:103C100066E0BB6898B23B8C4D4A1279D208D2B2AA
:103C200093FBF2F39AB27B689BB2134499B2484B70
:103C30001B799AB2BB689BB213449BB2013B9CB206
:103C40003B8C434A1279D208D2B293FBF2F39AB278
:103C50007B689BB213449BB22246FFF787FC3C4B28
:103C60001B79DB08DBB2013BFB6126E0384B1B68AC
:103C7000F98CFA690A4413441B78BB740023FB7661
:103C800015E0BA7CFB7E42FA03F303F00103002B3C
:103C900005D0304B1B881846FFF716FF04E02E4B6B
:103CA0001B881846FFF710FFFB7E0133FB76FB7E77
:103CB000072BE6D9FB69013BFB61FB69002BD5DAD9
:103CC000234B1B79DB08DBB29AB2FB8C1344FB84D9
:103CD0001F4B1B79DB08DBB29AB23B8C13443B844D
:103CE0003A8C1B4B1B79DB08DBB21946184B5B790E
:103CF00003FB01F39A428CDB8AE0FB7B144A927946
:103D00009B1A9AB2124B1B79DB08DBB299B2104BAB
:103D10005B799BB211FB03F39BB212FB03F39BB2E3
:103D20000433FB8400233B836CE000237B6156E07B
:103D3000074B1B68F98C7A690A4413441B78BB74DF
:103D40000023FB7445E000BF6FC000206EC0002060
:103D500074C000206CC000207CC00020FB7C9AB2A4
:103D6000BB689BB213449AB27B699BB2DB009BB2E7
:103D7000134498B27B689AB23B8B134499B2FB7C94
:103D80009AB2BB689BB213449AB27B699BB2DB00C8
:103D90009BB213449BB201339CB27B689AB23B8BBB
:103DA00013449BB201339BB22246FFF7DFFBBA7C80
:103DB000FB7CC3F1070342FA03F303F00103002B7A
:103DC00004D0164B1B881846FFF77EFEFB7C0133A0
:103DD000FB74FB7C072BC1D97B6901337B61104BE2
:103DE0001B79DB08DBB21A467B699A42A0DC0C4BDC
:103DF0001B79DB08DBB29AB2FB8C1344FB843B8B50
:103E000001333B83064B5B799BB23A8B9A428CD34E
:103E1000FFF714FC00BF2C37BD4690BD6CC00020DE
:103E200074C0002080B483B000AF78600E4A7B6815
:103E300013600D4B1B681A780B4B1A710A4B1B68E9
:103E40005A78094B5A71084B1B689A78064B9A713D
:103E5000054B1B68DA78044BDA7100BF0C37BD469E
:103E60005DF8047B704700BF74C0002080B586B049
:103E700000AFF860B9607A60FB687B610FE07B6837
:103E80001B78BA68F9681846FFF72EFE154B1B79A8
:103E90001A46FB681344FB607B6801337B607B68D8
:103EA0001B78002BEBD1104B1B887B820F4B1B88A0
:103EB0001846FFF7DBFD0B4B1B795A00FB681A44D1
:103EC000084B5B791946BB680B44B968F868FFF783
:103ED00093FD7B8A1846FFF7C9FD00BF1837BD4622
:103EE00080BD00BF74C000206CC000207CC00020DA
:103EF00090B58DB000AFF860B9607A607B684FEA2A
:103F0000E37407F1140218462146FCF719FA07F189
:103F100014031A46B968F868FFF7A8FF00BF3437E2
:103F2000BD4690BD2DE9F0438FB000AFF860B96099
:103F30007A603B606B461E467868FCF7E9F90346F9
:103F400003F10F014B1E7B630B461A464FF0000333
:103F50004FEAC30949EA52794FEAC2080B461A46AA
:103F60004FF00003DD0045EA5275D4000B460733DD
:103F7000DB08DB00ADEB030D6B4600333B633B6BB3
:103F800000221A703B6B79681846FCF745FB3B68CA
:103F90004FEAE37407F1140218462146FCF7D0F902
:103FA0003B6B07F1140211461846FCF735FB3B6BDF
:103FB0001A46B968F868FFF759FFB54600BF3C37A5
:103FC000BD46BDE8F08300BF2DE9F04391B000AFDE
:103FD00078613961FA6087ED020AFB716B461E4613
:103FE000F868FCF795F9034603F10F014B1EFB63DC
:103FF0000B461A464FF000034FEAC30949EA5279CB
:104000004FEAC2080B461A464FF00003DD0045EAAE
:104010005275D4000B460733DB08DB00ADEB030D14
:104020006B460033BB63BB6B00221A70BB6BF96835
:104030001846FCF7F1FAFA7907F11C031146184605
:1040400097ED020AFCF7CCF9BB6B07F11C02114695
:104050001846FCF7E1FABB6B1A4639697869FFF735
:1040600005FFB54600BF4437BD46BDE8F08300BF3D
:1040700080B586B000AF7860396000237B61002393
:104080003B610023FB607B687A4A934223D07B68C4
:10409000794A93421FD07B68784A93421BD07B6851
:1040A000774A934217D07B68764A934213D07B6855
:1040B000754A93420FD07B68744A93420BD07B6859
:1040C000734A934207D07B68724A934203D0BB2164
:1040D0007148FDF715FA3B681B68002B03D1BC2122
:1040E0006D48FDF70DFA3B681B79002B0FD03B683C
:1040F0001B79012B0BD03B681B79022B07D03B6847
:104100001B79032B03D0BD216348FDF7F9F93B6808
:10411000DB79002B0BD03B68DB79012B07D03B68A8
:10412000DB79022B03D0BE215B48FDF7E9F90023C0
:104130007B6197E001227B6902FA03F33B613B68F4
:104140001A683B691340FB60FA683B699A4240F089
:1041500086807B681A687B695B00032101FA03F3A0
:10416000DB431A407B681A607B681A683B681B79DE
:1041700019467B695B0001FA03F31A437B681A60F6
:104180003B681B79012B03D03B681B79022B4ED176
:104190003B685B79002B0FD03B685B79012B0BD020
:1041A0003B685B79022B07D03B685B79032B03D01C
:1041B000D0213948FDF7A4F97B689A687B695B00D8
:1041C000032101FA03F3DB431A407B689A607B68A2
:1041D0009A683B685B7919467B695B0001FA03F3D7
:1041E0001A437B689A603B689B79002B07D03B6839
:1041F0009B79012B03D0D7212748FDF781F97B68F4
:104200005A687B699BB2194601238B40DB431A40F5
:104210007B685A607B685B683A68927911467A6974
:1042200092B201FA02F292B21A437B685A607B683A
:10423000DA687B699BB25B00032101FA03F3DB437D
:104240001A407B68DA607B68DA683B68DB7919467C
:104250007B695B0001FA03F31A437B68DA607B69D0
:1042600001337B617B690F2B7FF664AF00BF18378A
:10427000BD4680BD0000024000040240000802402C
:10428000000C0240001002400014024000180240DE
:10429000001C024000200240ECBF000880B584B042
:1042A00000AF78600B467B800023FB737B683A4A43
:1042B000934224D07B68394A934220D07B68384AA5
:1042C00093421CD07B68374A934218D07B68364AA9
:1042D000934214D07B68354A934210D07B68344AAD
:1042E00093420CD07B68334A934208D07B68324AB1
:1042F000934204D04FF498713048FDF701F97B8860
:10430000012B39D07B88022B36D07B88042B33D00D
:104310007B88082B30D07B88102B2DD07B88202BDE
:104320002AD07B88402B27D07B88802B24D07B8889
:10433000B3F5807F20D07B88B3F5007F1CD07B88CD
:10434000B3F5806F18D07B88B3F5006F14D07B88ED
:10435000B3F5805F10D07B88B3F5005F0CD07B880D
:10436000B3F5804F08D07B88B3F5004F04D040F2FE
:1043700031111248FDF7C4F87B681A697B88134035
:10438000002B02D00123FB7301E00023FB73FB7BB6
:1043900018461037BD4680BD0000024000040240B0
:1043A00000080240000C02400010024000140240CD
:1043B00000180240001C024000200240ECBF000830
:1043C00080B582B000AF78600B467B807B681B4A6B
:1043D000934224D07B681A4A934220D07B68194AC2
:1043E00093421CD07B68184A934218D07B68174AC6
:1043F000934214D07B68164A934210D07B68154ACA
:1044000093420CD07B68144A934208D07B68134ACD
:10441000934204D040F27F111148FDF771F87B8878
:10442000002B04D14FF4C0710D48FDF769F87B688B
:104430007A881A8300BF0837BD4680BD000002405D
:104440000004024000080240000C0240001002403C
:104450000014024000180240001C024000200240EC
:10446000ECBF000880B582B000AF78600B467B805F
:104470007B681B4A934224D07B681A4A934220D01F
:104480007B68194A93421CD07B68184A934218D023
:104490007B68174A934214D07B68164A934210D027
:1044A0007B68154A93420CD07B68144A934208D02B
:1044B0007B68134A934204D04FF4C9711148FDF749
:1044C0001FF87B88002B04D140F293110D48FDF7B3
:1044D00017F87B687A885A8300BF0837BD4680BDCD
:1044E000000002400004024000080240000C0240AC
:1044F000001002400014024000180240001C02405C
:1045000000200240ECBF000880B584B000AF7860A6
:104510000B467B8013467B700023FB600023BB604F
:104520007B68844A934224D07B68834A934220D09C
:104530007B68824A93421CD07B68814A934218D0A0
:104540007B68804A934214D07B687F4A934210D0A4
:104550007B687E4A93420CD07B687D4A934208D0A8
:104560007B687C4A934204D040F217217A48FCF7DA
:10457000C7FF7B88002B31D07B88012B2ED07B8816
:10458000022B2BD07B88032B28D07B88042B25D0B3
:104590007B88052B22D07B88062B1FD07B88072B9E
:1045A0001CD07B88082B19D07B88092B16D07B88E0
:1045B0000A2B13D07B880B2B10D07B880C2B0DD0B3
:1045C0007B880D2B0AD07B880E2B07D07B880F2B86
:1045D00004D04FF406716048FCF792FF7B78002B03
:1045E0006DD07B78092B6AD07B78002B67D07B78E5
:1045F000002B64D07B78002B61D07B78002B5ED0C1
:104600007B78012B5BD07B78012B58D07B78022BF9
:1046100055D07B78022B52D07B78022B4FD07B7801
:10462000032B4CD07B78042B49D07B78042B46D0CD
:104630007B78042B43D07B78052B40D07B78052BEF
:104640003DD07B78092B3AD07B78062B37D07B780E
:10465000092B34D07B78072B31D07B78072B2ED0D9
:104660007B78072B2BD07B78082B28D07B78082BE6
:1046700025D07B78082B22D07B78092B1FD07B7824
:10468000092B1CD07B780A2B19D07B780A2B16D0EB
:104690007B780B2B13D07B780C2B10D07B780C2BDA
:1046A0000DD07B780C2B0AD07B780D2B07D07B7834
:1046B0000F2B04D040F219212748FCF721FF7A780C
:1046C0007B8803F007039B0002FA03F3FB607B88FF
:1046D000DB089BB218467B88DB089BB21A467B68D6
:1046E000083253F822207B8803F007039B000F2138
:1046F00001FA03F3DB4302EA03017B6800F10802DD
:1047000043F822107B88DB089BB21A467B6808328C
:1047100053F82220FB681343BB607B88DB089BB205
:104720001A467B680832B96843F8221000BF103778
:10473000BD4680BD00000240000402400008024067
:10474000000C024000100240001402400018024019
:10475000001C024000200240ECBF000880B483B07F
:1047600000AF78607B6803F108027B685A607B6861
:104770004FF0FF329A607B6803F108027B68DA60D1
:104780007B6803F108027B681A617B6800221A606B
:1047900000BF0C37BD465DF8047B704780B483B022
:1047A00000AF78607B6800221A6100BF0C37BD46FD
:1047B0005DF8047B704700BF80B485B000AF7860BF
:1047C00039607B685B68FB603B68FA685A60FB682D
:1047D0009A683B689A60FB689B683A685A60FB6815
:1047E0003A689A603B687A681A617B681B685A1C51
:1047F0007B681A6000BF1437BD465DF8047B7047C4
:1048000080B485B000AF786039603B681B68BB60DE
:10481000BB68B3F1FF3F03D17B681B69FB600CE011
:104820007B680833FB6002E0FB685B68FB60FB6849
:104830005B681A68BB689A42F6D9FB685A683B689D
:104840005A603B685B683A689A603B68FA689A60AD
:10485000FB683A685A603B687A681A617B681B6833
:104860005A1C7B681A6000BF1437BD465DF8047B94
:10487000704700BF80B485B000AF78607B681B696B
:10488000FB607B685B687A6892689A607B689B686B
:104890007A6852685A60FB685A687B689A4203D10A
:1048A0007B689A68FB685A607B6800221A61FB6823
:1048B0001B685A1EFB681A60FB681B681846143791
:1048C000BD465DF8047B704780B500AF164A164BB5
:1048D000D3F8883043F47003C2F88830134A134B7E
:1048E0001B6843F001031360104B00229A600F4ACB
:1048F0000E4B1B6823F0847323F4803313600B4B3F
:104900000B4A5A60094A094B1B6823F48023136041
:10491000064B0022DA6000F00DF8034B4FF0006206
:104920009A6000BF80BD00BF00ED00E0003802408B
:104930001030002480B483B000AF00237B600023DC
:104940003B60364A354B1B6843F480331360334B6E
:104950001B6803F400333B607B6801337B603B687A
:10496000002B03D17B68B3F5A06FF0D12B4B1B68F4
:1049700003F40033002B02D001233B6001E000234D
:104980003B603B68012B42D1244A244B1B6C43F013
:1049900080531364224A224B1B6843F48043136004
:1049A0001E4A1E4B9B6893601C4A1C4B9B6843F439
:1049B00000439360194A194B9B6843F4A0539360DA
:1049C000164B184A5A60154A144B1B6843F0807303
:1049D000136000BF114B1B6803F00073002BF9D06C
:1049E000114B40F205621A600C4A0C4B9B6823F095
:1049F00003039360094A094B9B6843F002039360E9
:104A000000BF064B9B6803F00C03082BF9D100BFD5
:104A10000C37BD465DF8047B704700BF003802408C
:104A20000070004008544007003C024080B483B04E
:104A300000AF0346FB71094997F907305B09FA7922
:104A400002F01F02012000FA02F241F8232000BF09
:104A50000C37BD465DF8047B704700BF00E100E005
:104A600080B483B000AF0023FB7107E0FB79084AF4
:104A7000002142F82310FB790133FB71FB79022BF3
:104A8000F4D900BF0C37BD465DF8047B704700BF0A
:104A90005C1E012080B588B000AF0023FB770BE0DF
:104AA000FA7FF97F0023494840F82130484941F80E
:104AB0002230FB7F0133FB77FB7F022BF0D90023F1
:104AC000444A1360444A136001211220FCF7F4FDAC
:104AD0004EF6BA037B6101233B7603237B760023EA
:104AE000BB760023FB7607F1140319463B48FFF71A
:104AF000BFFA37237B6101233B7603237B760023B8
:104B0000BB760023FB7607F1140319463448FFF700
:104B1000AFFAFF2001F0EEFB01210120FCF776FE49
:104B200001210820FCF772FE09233B8100237B81D1
:104B300041F25263FB6000233B820023BB7407F108
:104B4000080319464FF0804003F0B6FB40F62933C6
:104B5000FB6007F108031946224803F0ADFB08216A
:104B6000204803F00BFD012201214FF0804003F0AB
:104B700069FF1C233B7100237B710123BB7101235F
:104B8000FB713B1D184602F03BFC32233B700423B3
:104B90007B700023BB700123FB703B46184602F07C
:104BA0002FFC012201210F4803F04CFF3220FFF7B8
:104BB0003DFF01214FF0804003F05EFC01210948D8
:104BC00003F05AFC00BF2037BD4680BD8CC00020DA
:104BD00080C00020681E0120581E012000040240F1
:104BE00000100240000C004080B483B000AF0346C8
:104BF0003960FB7100BF0C37BD465DF8047B704720
:104C000080B483B000AF03463960FB7100BF0C373E
:104C1000BD465DF8047B70472DE9F04182B000AFDE
:104C200003463960FB71584B1868FD79564B1A687A
:104C3000564913461B019B1ADB000B44D3E90012B3
:104C4000514B1C68514E23461B011B1BDB00334498
:104C5000D3E9003403FB02FE01FB04F67644A1FB1A
:104C6000033432191446494902461201121A2A44E1
:104C70000B32D2000A44C2E90034434B1868FD7974
:104C80003B685B6A19464FEAE1723B685B6A4FEA30
:104C9000E37403FB02FE01FB04F67644A1FB03343C
:104CA00032191446394902461201121A2A440B32AB
:104CB000D2000A44C2E900343B689B69002B03D14F
:104CC0003B68DB69002B59D02F4B186897F807E039
:104CD0003B689B6919464FEAE1723B689B694FEA62
:104CE000E37403FB02F601FB04F506EB050CA1FBE4
:104CF00003560CEB06031E463B68DB6919464FEA78
:104D0000E1723B68DB694FEAE37403FB02F801FBE5
:104D100004FCC444A1FB03340CEB04021446E91860
:104D200046EB0402194C03461B011B1A73440B3358
:104D3000DB002344C3E90012134B1A68F9791348C6
:104D400013461B019B1A0B440B33DB000344D3E9CE
:104D500000341846214604F05DFA03460C4644EC44
:104D6000103B03F0A1FF54EC103B1846214604F021
:104D700035FE03460C461A463B685A6200BF0837A8
:104D8000BD46BDE8F08100BF681E0120701E0120F5
:104D9000B0B584B000AF03463960FB712A4B1A6886
:104DA000F9792A4813461B019B1A5B000B44083310
:104DB00050F82330581C254C13461B019B1A5B00EE
:104DC0000B44083344F823001F4B1A68F9791F4835
:104DD00013461B019B1A5B000B44083350F8233029
:104DE00019464FEAE172184B1868184C03461B012C
:104DF0001B1ADB002344D3E9003403FB02F501FB5B
:104E000004F00544A1FB03016B1819460E4B1A6808
:104E1000FC790E4D13461B019B1A5B0023440E3395
:104E200055F823304FEAE3741A46234604F098FD00
:104E300003460C46FB60FB684FF000041846214611
:104E40001037BD46B0BD00BF681E0120701E012096
:104E500090B589B000AF03463960FB71544B1A68B6
:104E6000F979544813461B019B1A5B000B44083325
:104E700050F82330581C4F4C13461B019B1A5B0003
:104E80000B44083344F823003B68596A484B1A68BE
:104E9000F879484C13461B019B1A5B000344083306
:104EA00054F82330CB1A4FEAE374C7E90634404B79
:104EB0001A68F9793F4813461B019B1A0B440B33C0
:104EC000DB000344D3E90012FB69B86900FB03F07F
:104ED000FB69BC6904FB03F31844BC69BB69A4FB10
:104EE000033420440446CB1A62EB0404C7E90434BB
:104EF0002F4B1A68F9792F4813461B019B1A0B4454
:104F00000B33DB000344D3E90012FB69B86900FBF3
:104F100003F0FB69BC6904FB03F31844BC69BB697B
:104F2000A4FB033420440446A24208BF994203D2A2
:104F3000BA212148FCF7E4FAD7E9040104F06AF940
:104F400003460C4644EC103B03F0AEFE54EC103B21
:104F50001846214604F044FC03464FF00004C7E91C
:104F600002343B681B78022B05D1FB79002B0CD156
:104F7000D7E9023417E03B681B78032B05D1FB7996
:104F8000012B02D1D7E902340DE0094B1A68F979F7
:104F9000084813461B019B1A5B000B44083350F86A
:104FA00023304FEAE374184621462437BD4690BDAE
:104FB000681E0120701E01202CC0000880B584B03E
:104FC00000AF0346FB71FB79022B03D9D9211448AA
:104FD000FCF796FAFB79134A52F82330FB60FA7912
:104FE000104B53F8223001330E4941F82230B3F50B
:104FF000FA6F04D3FB790B4A002142F82310FB79A6
:10500000084A52F82330B3F5FA6F03D3E02104487D
:10501000FCF776FAFB6818461037BD4680BD00BF26
:105020002CC0000880C0002080B483B000AF0346CD
:10503000FB71FB79094A52F82330002B02D140F270
:10504000CF7304E0FB79054A52F82330013B184640
:105050000C37BD465DF8047B704700BF80C0002060
:1050600080B584B000AF0346FB71FB79184A52F853
:105070002330FB60FB79164A52F82320FB7915494F
:1050800051F823309A4203D1F7211348FCF738FA3C
:10509000FA790F4B53F8223001330D4941F8223091
:1050A000B3F5FA6F04D3FB79094A002142F82310C3
:1050B000FB79074A52F82330B3F5FA6F03D3FC218A
:1050C0000548FCF71DFAFB6818461037BD4680BD41
:1050D0008CC0002080C000202CC0000880B582B0A9
:1050E00000AF0346FB71204B1B68132B04D94FF410
:1050F00084711E48FCF704FA1B4B1A681C491346BE
:105100001B019B1ADB000B4450331B881A46FB79AA
:1051100042FA03F303F00103002B02D14FF6FF73B1
:105120001EE0FB79134A52F82320FB79124951F80B
:1051300023309A4209D3FB790E4A52F82320FB7997
:105140000D4951F82330D31A0AE0FB79094A52F885
:105150002320FB79084951F82330D31A03F5FA6369
:1051600018460837BD4680BD681E01202CC00008C7
:10517000701E012080C000208CC0002080B485B04B
:1051800000AF78600023FB600023FB7215E0FA7A21
:105190007B6853F82230002BB8BF5B421A46FB688D
:1051A0009A4207D9FA7A7B6853F82230002BB8BFAD
:1051B0005B42FB60FB7A0133FB72FB7A022BE6D980
:1051C000FB6818461437BD465DF8047B704700BF86
:1051D000F0B599B000AF78607B680433FB627B6800
:1051E00008333B637B680C337B63AC4B07F11804DB
:1051F0001D460FCD0FC42B682360A94B07F108048F
:105200000FCB84E80F000023A7F85E30A54B186889
:1052100000234FF0FF32002101F072FB7B685B68D6
:10522000A14A40F213110020FEF77CFE7B689B68C8
:105230009E4A40F213115020FEF774FE9C4B1B68EF
:105240009C4A40F213119620FEF76CFE9A4B1B68A5
:105250005A1C99490A60994A40F21311BE20FEF780
:1052600061FE904B186800230022002101F06AFAC9
:10527000002387F85D301AE07B681B78042B04D983
:1052800040F257118E48FCF73BF97B681B789B0076
:1052900007F16002134453F8483C97F85D207968A1
:1052A0001046984797F85D30013387F85D3097F8DE
:1052B0005D30022BE0D9002387F85C30C5E07C4BE1
:1052C0001B68132B04D940F25F117D48FCF718F9D5
:1052D000774B1A6897F85C107A4813461B019B1AA3
:1052E0005B000B440833002240F82320704B1A68FF
:1052F00097F85C0097F85C309B0007F160010B4465
:1053000053F8343C19686F4C13461B019B1A5B0021
:1053100003440A339B0023445960654B1A686A4B67
:105320001B689A4221D1624B1A6897F85C00604B67
:10533000196897F85C40634D0B461B015B1A5B00D4
:1053400023440A339B002B44596897F85C305F4C28
:1053500054F82330C91A5B4C13461B019B1A5B009F
:1053600003440E3344F8231030E0514B196897F88A
:105370005C004F4B1A6897F85C40524D13461B0176
:105380009B1A5B0023440A339B002B445C68484B08
:105390001B68002B03D0464B1B685A1E00E01322EB
:1053A00097F85C50474E13461B019B1A5B002B4439
:1053B0000A339B0033445B68E21A424C0B461B01E4
:1053C0005B1A5B0003440E3344F823207B689B691F
:1053D000002B18D097F85C30002B14D1344B1A688E
:1053E00097F85C007B68596A7B689B69002BB8BFA3
:1053F0005B42C91A334C13461B019B1A5B000344E2
:10540000083344F823107B68DB69002B18D097F829
:105410005C30012B14D1264B1A6897F85C007B682E
:10542000596A7B68DB69002BB8BF5B42C91A254CFF
:1054300013461B019B1A5B000344083344F82310F6
:1054400097F85C30013387F85C3097F85C30022BBA
:105450007FF635AF164B1B68132B04D940F27F1132
:105460001748FCF74DF8124B1A68164913461B01F2
:105470009B1ADB000B44503300221A800C4B1A6835
:10548000104913461B019B1ADB000B4452330022C8
:105490001A80002387F85B30EBE000BF64C000088F
:1054A00078C00008A0BC002054C0000858C0000804
:1054B000681E01205CC000081008002060C00008C1
:1054C0002CC00008701E0120581E01205C1E012007
:1054D000B64B1A6897F85B10B54813461B019B1A28
:1054E0005B000B440E3350F82330002B42D0AF4BFF
:1054F0001B68132B04D940F28911AE48FCF700F861
:10550000AA4B1A68AA4913461B019B1ADB000B44DD
:1055100050331B8819B297F85B30012000FA03F36F
:105520001BB20B431BB298B2A14913461B019B1A35
:10553000DB000B44503302461A809C4B1A689C498E
:1055400013461B019B1ADB000B445233B3F90010C6
:1055500097F85B305B00012000FA03F31BB20B43AA
:1055600018B2934913461B019B1ADB000B445233BC
:1055700002461A808D4B1A6897F85B108C481346C8
:105580001B019B1A5B000B440E3350F82330002B99
:1055900034DC864B1B68132B04D940F291118548EB
:1055A000FBF7AEFF814B1A6897F85B007F4B1968D9
:1055B00097F85B407E4D0B461B015B1A5B00234452
:1055C0000E3355F823305942794C13461B019B1A70
:1055D0005B0003440E3344F82310744B1A6897F8A9
:1055E0005B10734813461B019B1A5B000B4410337E
:1055F0009B0003444FF0FF325A6035E06B4B1B6851
:10560000132B04D940F299116A48FBF779FF674BD5
:105610001A6897F85B10664813461B019B1A5B00DB
:105620000B4410339B00034401225A605F4B1A68FD
:105630005F4913461B019B1ADB000B445233B3F93D
:10564000001097F85B305B000133012000FA03F390
:105650001BB20B4318B2564913461B019B1ADB00C1
:105660000B44523302461A8097F85B30013387F8B7
:105670005B3097F85B30022B7FF62AAF4B4B1B68F1
:10568000132B04D940F2A1114A48FBF739FF474BCD
:105690001A68474913461B019B1ADB000B44503321
:1056A0001B88A7F85E30414B1B68132B04D940F2CE
:1056B000A5114048FBF724FF3C4B1D683B4B1C6881
:1056C0003A4B1A6813461B019B1ADB003833384AE1
:1056D00013441846FFF752FD034619464FF00002E7
:1056E000334823461B011B1BDB0003440833C3E97B
:1056F00000122F4A23461B011B1BDB0013440833F7
:10570000D3E900122A482B461B015B1BDB00034434
:10571000C3E90012254B1A68254913461B019B1A41
:10572000DB000B4403F170024FF000034FF0000464
:10573000C2E900341D4B1A681D4913461B019B1A10
:10574000DB000B44543300221A70184B1868174BB7
:105750001A68174913461B019B1ADB000B4403F11F
:1057600018014FF001034FF00004C1E90034104963
:1057700013461B019B1ADB000B441833D3E90012BC
:105780000B4C03461B011B1ADB0023441033C3E9F7
:10579000001201214FF0804002F06EFFF2E0002382
:1057A000A7F85830002387F85730B0E0681E012072
:1057B000701E01202CC000088B4B1B68132B04D9D2
:1057C0004FF4E4718948FBF79BFE97F85730184671
:1057D000FFF784FC0346B3F5E16F69D2824B1A6888
:1057E00097F85710824813461B019B1A5B000B4425
:1057F000083350F823107C4B1A6897F857007C4CFC
:1058000013461B019B1A5B0003440E3354F82330EC
:1058100099424DD002217748FEF7D2FD97F85730D4
:105820001846FFF701FC97F85720734903465B00C1
:105830000344134451F823304FF00004C7E91234F5
:1058400097F857301846FFF7B9FB054697F85740C9
:105850007B681B789B0007F16002134453F8583CA7
:1058600097F85720796810469847C7E910013A6CB5
:1058700061492B465B002B44234441F82320D7E9A0
:105880001012D7E91234CB1A62EB0404C7E90E34C4
:10589000D7E90E3423430BD197F85730012202FA8F
:1058A00003F31AB2B7F9583013431BB2A7F85830B4
:1058B0004D4B1A6897F857104D4813461B019B1A19
:1058C0005B000B44083350F82310474B1A6897F8D5
:1058D0005700474C13461B019B1A5B0003440E33D1
:1058E00054F8233099420DD197F85730012202FA2B
:1058F00003F31BB2DB431AB2B7F95E3013401BB29D
:10590000A7F85E3097F85730013387F8573097F88B
:105910005730022B7FF650AFB7F85830002B16D017
:10592000314B1A68324913461B019B1ADB000B44AA
:105930000833D3E90034581C44F100012C4C1346C1
:105940001B019B1ADB0023440833C3E90001264BEB
:105950001A68274913461B019B1ADB000B4470335E
:10596000D3E90034581C44F10001214C13461B01BB
:105970009B1ADB0023447033C3E9000102211D4858
:10598000FEF770FDB7F85E30002B7FF408AF164BC2
:105990001A68174913461B019B1ADB000B4403F1DD
:1059A00070024FF000034FF00004C2E900340E4BC8
:1059B0001B6801330C4A1360132B02D90A4B0022D7
:1059C0001A60094B1A680D4B1B689A4208D101E016
:1059D00000F04CFD044B1A68084B1B689A42F7D143
:1059E00000BF6437BD46F0BD681E01202CC0000812
:1059F000701E01200004024098C00020581E0120A3
:105A000080B582B000AF78607868FFF7E1FB00BF37
:105A10000837BD4680BD00BF80B58EB000AF78604E
:105A20000020FCF7B1FF78636420FCF763FAFFF70E
:105A300031F8FFF715F86420FCF75CFA124B1B688D
:105A400008211846FCF790FA104B186807F1080176
:105A500000230A2200F054FF0346002B0ED00C4B0B
:105A60009B7A0133DAB20A4B9A7207F1080318469F
:105A7000FFF7C6FF0020FCF787FF786300F0F6FC15
:105A80000A20FCF737FADFE794BC002078280120D1
:105A9000FC05002090B58BB000AF00F0F9FC0121AF
:105AA0004FF0804003F062F80346002B00F0C783FC
:105AB0004FF080434FF6E8525A624FF080434FF662
:105AC000FE721A820023FB84002387F8253000230E
:105AD00087F824300FE097F82430012202FA03F30C
